{"abi":[{"type":"function","name":"NATIVE","inputs":[],"outputs":[{"name":"","type":"address","internalType":"Currency"}],"stateMutability":"view"},{"type":"error","name":"ERC20TransferFailed","inputs":[]},{"type":"error","name":"NativeTransferFailed","inputs":[]}],"bytecode":{"object":"0x60916037600b82828239805160001a607314602a57634e487b7160e01b600052600060045260246000fd5b30600052607381538281f3fe730000000000000000000000000000000000000000301460806040526004361060335760003560e01c8063a0cf0aea146038575b600080fd5b603f600081565b6040516001600160a01b03909116815260200160405180910390f3fea26469706673582212207d42b6ef0eb41147c1d37809dc06f701a07fd1a9cbc1bbf8bdba96b1d0ca314e64736f6c63430008190033","linkReferences":{}},"methodIdentifiers":{"NATIVE()":"a0cf0aea"},"id":35}