{"abi":[{"type":"function","name":"MAX_PROTOCOL_FEE","inputs":[],"outputs":[{"name":"","type":"uint16","internalType":"uint16"}],"stateMutability":"view"}],"bytecode":{"object":"0x608d6037600b82828239805160001a607314602a57634e487b7160e01b600052600060045260246000fd5b30600052607381538281f3fe730000000000000000000000000000000000000000301460806040526004361060335760003560e01c8063b8ca3b83146038575b600080fd5b60406103e881565b60405161ffff909116815260200160405180910390f3fea26469706673582212207dd5f9c048e390f7abfa0a1ef85a055a296ee2b9dcc678d4436abafe066eaa1564736f6c63430008190033","linkReferences":{}},"methodIdentifiers":{"MAX_PROTOCOL_FEE()":"b8ca3b83"},"id":26}