{"abi":[{"type":"function","name":"ZERO_DELTA","inputs":[],"outputs":[{"name":"","type":"int256","internalType":"BeforeSwapDelta"}],"stateMutability":"view"}],"bytecode":{"object":"0x60876037600b82828239805160001a607314602a57634e487b7160e01b600052600060045260246000fd5b30600052607381538281f3fe730000000000000000000000000000000000000000301460806040526004361060335760003560e01c806391cb4669146038575b600080fd5b603f600081565b60405190815260200160405180910390f3fea264697066735822122061d26a637a848fcf5f21b26f926a1e65b26f8c43a86cb222a530b6bd3e8d114664736f6c63430008190033","linkReferences":{}},"methodIdentifiers":{"ZERO_DELTA()":"91cb4669"},"id":1}