{"abi":[{"type":"function","name":"DYNAMIC_FEE_FLAG","inputs":[],"outputs":[{"name":"","type":"uint24","internalType":"uint24"}],"stateMutability":"view"},{"type":"function","name":"MAX_LP_FEE","inputs":[],"outputs":[{"name":"","type":"uint24","internalType":"uint24"}],"stateMutability":"view"},{"type":"function","name":"OVERRIDE_FEE_FLAG","inputs":[],"outputs":[{"name":"","type":"uint24","internalType":"uint24"}],"stateMutability":"view"},{"type":"function","name":"REMOVE_OVERRIDE_MASK","inputs":[],"outputs":[{"name":"","type":"uint24","internalType":"uint24"}],"stateMutability":"view"},{"type":"error","name":"FeeTooLarge","inputs":[]}],"bytecode":{"object":"0x60c8610038600b82828239805160001a607314602b57634e487b7160e01b600052600060045260246000fd5b30600052607381538281f3fe730000000000000000000000000000000000000000301460806040526004361060515760003560e01c80633b01d64d1460565780633fc48eba1460775780636f95ebcf146080578063f26ef49d146089575b600080fd5b605f6240000081565b60405162ffffff909116815260200160405180910390f35b605f620f424081565b605f62bfffff81565b605f628000008156fea26469706673582212208a426971d709e0700a552c5ed76f1389b27d9c763c5c22dff40d89e6f23c3adf64736f6c63430008190033","linkReferences":{}},"methodIdentifiers":{"DYNAMIC_FEE_FLAG()":"f26ef49d","MAX_LP_FEE()":"3fc48eba","OVERRIDE_FEE_FLAG()":"3b01d64d","REMOVE_OVERRIDE_MASK()":"6f95ebcf"},"id":1}